{
  "_format": "hh3-artifact-1",
  "contractName": "IkiminaFactory",
  "sourceName": "contracts/Ikimina.sol",
  "abi": [
    {
      "inputs": [
        {
          "internalType": "contract IERC20",
          "name": "_token",
          "type": "address"
        }
      ],
      "stateMutability": "nonpayable",
      "type": "constructor"
    },
    {
      "anonymous": false,
      "inputs": [
        {
          "indexed": true,
          "internalType": "address",
          "name": "group",
          "type": "address"
        },
        {
          "indexed": true,
          "internalType": "address",
          "name": "creator",
          "type": "address"
        },
        {
          "indexed": false,
          "internalType": "bytes32",
          "name": "inviteCodeHash",
          "type": "bytes32"
        }
      ],
      "name": "GroupDeployed",
      "type": "event"
    },
    {
      "inputs": [
        {
          "internalType": "uint256",
          "name": "",
          "type": "uint256"
        }
      ],
      "name": "allGroups",
      "outputs": [
        {
          "internalType": "address",
          "name": "",
          "type": "address"
        }
      ],
      "stateMutability": "view",
      "type": "function"
    },
    {
      "inputs": [],
      "name": "allGroupsLength",
      "outputs": [
        {
          "internalType": "uint256",
          "name": "",
          "type": "uint256"
        }
      ],
      "stateMutability": "view",
      "type": "function"
    },
    {
      "inputs": [
        {
          "components": [
            {
              "internalType": "uint256",
              "name": "contributionAmount",
              "type": "uint256"
            },
            {
              "internalType": "uint256",
              "name": "cycleLength",
              "type": "uint256"
            },
            {
              "internalType": "uint256",
              "name": "payoutAmount",
              "type": "uint256"
            },
            {
              "internalType": "enum Ikimina.PayoutPolicy",
              "name": "payoutPolicy",
              "type": "uint8"
            },
            {
              "internalType": "uint16",
              "name": "penaltyRateBps",
              "type": "uint16"
            },
            {
              "internalType": "uint16",
              "name": "approvalThresholdBps",
              "type": "uint16"
            },
            {
              "internalType": "bool",
              "name": "loansEnabled",
              "type": "bool"
            },
            {
              "internalType": "bool",
              "name": "discretionaryEnabled",
              "type": "bool"
            },
            {
              "internalType": "bool",
              "name": "allMembersCommittee",
              "type": "bool"
            }
          ],
          "internalType": "struct Ikimina.Config",
          "name": "config",
          "type": "tuple"
        },
        {
          "internalType": "bytes32",
          "name": "inviteCodeHash",
          "type": "bytes32"
        }
      ],
      "name": "createGroup",
      "outputs": [
        {
          "internalType": "address",
          "name": "",
          "type": "address"
        }
      ],
      "stateMutability": "nonpayable",
      "type": "function"
    },
    {
      "inputs": [],
      "name": "token",
      "outputs": [
        {
          "internalType": "contract IERC20",
          "name": "",
          "type": "address"
        }
      ],
      "stateMutability": "view",
      "type": "function"
    }
  ],
  "bytecode": "0x60a0604052348015600e575f5ffd5b50604051613f7b380380613f7b833981016040819052602b91603b565b6001600160a01b03166080526066565b5f60208284031215604a575f5ffd5b81516001600160a01b0381168114605f575f5ffd5b9392505050565b608051613ef86100835f395f81816093015260cd0152613ef85ff3fe608060405234801561000f575f5ffd5b506004361061004a575f3560e01c80635265793c1461004e5780638faf77f51461007e578063fc0c546a1461008e578063fd16c1d3146100b5575b5f5ffd5b61006161005c3660046101de565b6100c8565b6040516001600160a01b0390911681526020015b60405180910390f35b5f54604051908152602001610075565b6100617f000000000000000000000000000000000000000000000000000000000000000081565b6100616100c336600461020f565b6101aa565b5f5f337f000000000000000000000000000000000000000000000000000000000000000085856040516100fa906101d1565b610107949392919061026b565b604051809103905ff080158015610120573d5f5f3e3d5ffd5b505f80546001810182559080527f290decd9548b62a8d60345a988386fc84ba6bc95484008f6362f93160ef3e5630180546001600160a01b0319166001600160a01b03831690811790915560405185815291925033917f4c7ebf27388e3a313dd51113dc3497f221f623e491e5f9349b2200289ac992c89060200160405180910390a39392505050565b5f81815481106101b8575f80fd5b5f918252602090912001546001600160a01b0316905081565b613b838061034083390190565b5f5f8284036101408112156101f1575f5ffd5b6101208112156101ff575f5ffd5b5091936101208501359350915050565b5f6020828403121561021f575f5ffd5b5035919050565b6003811061024257634e487b7160e01b5f52602160045260245ffd5b9052565b803561ffff81168114610257575f5ffd5b919050565b80358015158114610257575f5ffd5b6001600160a01b0385811682528416602080830191909152833560408084019190915290840135606080840191909152908401356080830152610180820190840135600381106102b9575f5ffd5b6102c660a0840182610226565b506102d360808501610246565b61ffff1660c08301526102e860a08501610246565b61ffff1660e08301526102fd60c0850161025c565b151561010083015261031160e0850161025c565b1515610120830152610326610100850161025c565b151561014083015261016090910191909152939250505056fe60c06040526001601655348015610014575f5ffd5b50604051613b83380380613b838339810160408190526100339161031b565b3360a0526001600160a01b03831660805281515f90815560208301516001908155604084015160029081556060850151600380548795949293919260ff19909116918490811115610086576100866103ff565b02179055506080820151600391909101805460a084015160c085015160e08601516101009687015164ffffffff001990941661ffff96871690970264ffff000000191696909617630100000095909216949094021761ffff60281b1916650100000000009315159390930260ff60301b1916929092176601000000000000931515939093029290921760ff60381b19166701000000000000009115159190910217905560048190556001600b81905542600c55610144908590610190565b836001600160a01b03167fb826c9928d2390cd7e23f6c034c2c15f5302645aecb802f168587c2c4b6d03e24260405161017f91815260200190565b60405180910390a250505050610437565b6001600160a01b0382165f8181526006602090815260408083208054600160ff19918216811790925560078452828520805490911682179055600b546009909352908320919091556005805491820181559091527f036b6384b5eca791c62761152d0c79bb0604c104a5fb6f4eb0703f3154bb3db00180546001600160a01b03191690911790558015610253576001600160a01b0382165f908152600860205260408120805460ff19166001179055600a80549161024d83610413565b91905055505b816001600160a01b03167f7f3b9effe05cfb4f31f854004de03199fd03fe56bf38a48b2aa9a9f4402d6e23600b5460405161029091815260200190565b60405180910390a25050565b6001600160a01b03811681146102b0575f5ffd5b50565b60405161012081016001600160401b03811182821017156102e257634e487b7160e01b5f52604160045260245ffd5b60405290565b8051600381106102f6575f5ffd5b919050565b805161ffff811681146102f6575f5ffd5b805180151581146102f6575f5ffd5b5f5f5f5f848603610180811215610330575f5ffd5b855161033b8161029c565b602087015190955061034c8161029c565b9350610120603f1982011215610360575f5ffd5b506103696102b3565b60408681015182526060870151602083015260808701519082015261039060a087016102e8565b60608201526103a160c087016102fb565b60808201526103b260e087016102fb565b60a08201526103c4610100870161030c565b60c08201526103d6610120870161030c565b60e08201526103e8610140870161030c565b610100820152610160959095015193969295505050565b634e487b7160e01b5f52602160045260245ffd5b5f6001820161043057634e487b7160e01b5f52601160045260245ffd5b5060010190565b60805160a0516136d06104b35f395f6104f401525f81816105fb0152818161095c015281816109ff015281816112780152818161174f0152818161194f01528181611e29015281816120170152818161220f015281816122c501528181612693015281816127d201528181612b180152612c6701526136d05ff3fe608060405234801561000f575f5ffd5b506004361061024a575f3560e01c806398951b5611610140578063ce63094d116100bf578063d8bc7fff11610084578063d8bc7fff14610595578063da35c664146105c2578063e10591f3146105cb578063f2ad35d5146105d8578063f3a7e182146105ed578063fc0c546a146105f6575f5ffd5b8063ce63094d14610560578063cf5cbd6914610569578063d21af76814610572578063d4c158c51461057a578063d7bb99ba1461058d575f5ffd5b8063bc28d87811610105578063bc28d878146104dc578063c45a0155146104ef578063c5f692a414610516578063c7f758a814610538578063cd3293de14610558575f5ffd5b806398951b56146104695780639f8a13d71461047c578063a230c5241461049e578063ab7b1c89146104c0578063bab2f552146104d3575f5ffd5b8063524c1132116101cc57806370fa9b761161019157806370fa9b761461039d57806379502c55146103b05780637b83864114610414578063833e56fd146104335780638c9540d314610446575f5ffd5b8063524c1132146103045780635277b4ae1461031757806358128969146103565780635daf08ca1461035f5780636a786b071461038a575f5ffd5b80632d51bc77116102125780632d51bc77146102a157806332651b81146102c05780633fe071be146102d35780634331ed1f146102dc578063504006ca146102e4575f5ffd5b8063045078f91461024e57806304c405901461026957806305a95f041461027c5780630879ed4a146102865780630d61b5191461028e575b5f5ffd5b61025661061d565b6040519081526020015b60405180910390f35b610256610277366004612ddf565b61063c565b610284610733565b005b610256610b1b565b61028461029c366004612e17565b610b24565b6102566102af366004612e2e565b60096020525f908152604090205481565b6102566102ce366004612e17565b610c04565b610256600d5481565b610256610cc5565b6102f76102f2366004612e17565b610cce565b6040516102609190612e74565b610256610312366004612edf565b610d7a565b610344610325366004612f09565b601260209081525f928352604080842090915290825290205460ff1681565b60405160ff9091168152602001610260565b610256600c5481565b61037261036d366004612e17565b610dff565b6040516001600160a01b039091168152602001610260565b610284610398366004612f37565b610e27565b6102566103ab366004612fa5565b610ef3565b5f546001546002546003546103ff9392919060ff8082169161ffff61010082048116926301000000830490911691650100000000008104821691600160301b8204811691600160381b90041689565b60405161026099989796959493929190612fd3565b610256610422366004612e2e565b60106020525f908152604090205481565b610284610441366004612e17565b610f0a565b610459610454366004612e2e565b610f5f565b6040519015158152602001610260565b610459610477366004612e17565b610f69565b61045961048a366004612e2e565b60076020525f908152604090205460ff1681565b6104596104ac366004612e2e565b60066020525f908152604090205460ff1681565b6102846104ce366004612e17565b611145565b610256600b5481565b6104596104ea366004612e17565b61137f565b6103727f000000000000000000000000000000000000000000000000000000000000000081565b610459610524366004612e2e565b60086020525f908152604090205460ff1681565b61054b610546366004612e17565b611585565b6040516102609190613064565b610256611738565b61025660155481565b61025660045481565b6102566117c0565b610256610588366004612edf565b6117c9565b610284611840565b6104596105a3366004612f09565b600f60209081525f928352604080842090915290825290205460ff1681565b61025660135481565b600e546104599060ff1681565b6105e0611a82565b604051610260919061311f565b610256600a5481565b6103727f000000000000000000000000000000000000000000000000000000000000000081565b5f610637600460405180602001604052805f815250611ae2565b905090565b6003545f9065010000000000900460ff1661068a5760405162461bcd60e51b81526020600482015260096024820152683637b0b7399037b33360b91b60448201526064015b60405180910390fd5b6001600160a01b0385165f9081526007602052604090205460ff166106e55760405162461bcd60e51b8152602060048201526011602482015270626f72726f77657220696e61637469766560781b6044820152606401610681565b604080516001600160a01b0387166020820152908101859052606081018490526080810183905261072a905f9060a0015b604051602081830303815290604052611ae2565b95945050505050565b6016546001146107555760405162461bcd60e51b81526004016106819061316a565b6002601655600e5460ff161561077d5760405162461bcd60e51b81526004016106819061318d565b600154600c5461078d91906131c4565b4210156107c85760405162461bcd60e51b8152602060048201526009602482015268746f6f206561726c7960b81b6044820152606401610681565b6005546003545f80549091612710916107ea91610100900461ffff16906131d7565b6107f491906131ee565b905080156108f9575f5b828110156108f7575f6005828154811061081a5761081a61320d565b5f9182526020808320909101546001600160a01b0316808352600790915260409091205490915060ff1680156108755750600b545f908152600f602090815260408083206001600160a01b038516845290915290205460ff16155b156108ee576001600160a01b0381165f90815260106020526040812080548592906108a19084906131c4565b9091555050600b5460408051918252602082018590526001600160a01b038316917fcf40cadcd86c14cb7e696a86578255719f67bc54bf991d45d267ee6e01467c19910160405180910390a25b506001016107fe565b505b600160035460ff16600281111561091257610912612e50565b148015610920575060025415155b15610afa575f61092f83611c4b565b90506001600160a01b038116158015906109d057506002546040516370a0823160e01b81523060048201527f00000000000000000000000000000000000000000000000000000000000000006001600160a01b0316906370a0823190602401602060405180830381865afa1580156109a9573d5f5f3e3d5ffd5b505050506040513d601f19601f820116820180604052508101906109cd9190613221565b10155b15610af85760025460405163a9059cbb60e01b81526001600160a01b03838116600483015260248201929092527f00000000000000000000000000000000000000000000000000000000000000009091169063a9059cbb906044016020604051808303815f875af1158015610a47573d5f5f3e3d5ffd5b505050506040513d601f19601f82011682018060405250810190610a6b9190613255565b610aa75760405162461bcd60e51b815260206004820152600d60248201526c1c185e5bdd5d0819985a5b1959609a1b6044820152606401610681565b600b546002546040516001600160a01b038416927ffd48ed2061e833552ff5013f3780b5d4570714faf345f562170bcaf6d072314c92610aef92918252602082015260400190565b60405180910390a25b505b600b8054905f610b0983613270565b909155505042600c5550506001601655565b5f610637611cdd565b601654600114610b465760405162461bcd60e51b81526004016106819061316a565b600260165560015f828152601160205260409020600390810154600160401b900460ff1690811115610b7a57610b7a612e50565b14610bb65760405162461bcd60e51b815260206004820152600c60248201526b1b9bdd08185c1c1c9bdd995960a21b6044820152606401610681565b610bbf81611d32565b610bfc5760405162461bcd60e51b815260206004820152600e60248201526d6e6f742065786563757461626c6560901b6044820152606401610681565b506001601655565b6005545f90815b81811015610cbe5760075f60058381548110610c2957610c2961320d565b5f9182526020808320909101546001600160a01b0316835282019290925260400190205460ff168015610ca357505f848152600f602052604081206005805491929184908110610c7b57610c7b61320d565b5f9182526020808320909101546001600160a01b0316835282019290925260400190205460ff165b15610cb65782610cb281613270565b9350505b600101610c0b565b5050919050565b5f6106376128f4565b610cd6612d72565b5f828152601460209081526040918290208251610100810184528154815260018201546001600160a01b031692810192909252600281015492820192909252600380830154606083015260048301546080830152600583015460a0830152600683015460c0830152600783015491929160e084019160ff90911690811115610d6057610d60612e50565b6003811115610d7157610d71612e50565b90525092915050565b6001600160a01b0382165f9081526006602052604081205460ff16610dce5760405162461bcd60e51b815260206004820152600a6024820152693737ba1036b2b6b132b960b11b6044820152606401610681565b604080516001600160a01b0385166020820152908101839052610df690600390606001610716565b90505b92915050565b60058181548110610e0e575f80fd5b5f918252602090912001546001600160a01b0316905081565b600e5460ff1615610e4a5760405162461bcd60e51b81526004016106819061318d565b6004548282604051610e5d929190613288565b604051809103902014610e9d5760405162461bcd60e51b815260206004820152600860248201526762616420636f646560c01b6044820152606401610681565b335f9081526006602052604090205460ff1615610ee55760405162461bcd60e51b815260206004820152600660248201526536b2b6b132b960d11b6044820152606401610681565b610eef335f612960565b5050565b5f610df960028360405160200161071691906132c8565b610f1333612a6c565b610f2f5760405162461bcd60e51b815260040161068190613370565b60048190556040517ffa8ca0e1f5443844c7fed0202a781bbbe5ff3fdedb9f4542603f25c7e0535192905f90a150565b5f610df982612a6c565b5f601654600114610f8c5760405162461bcd60e51b81526004016106819061316a565b60026016555f82815260116020526040812090600382810154600160401b900460ff1690811115610fbf57610fbf612e50565b14610ff75760405162461bcd60e51b81526020600482015260086024820152673737ba1037b832b760c11b6044820152606401610681565b61100033612a6c565b61101c5760405162461bcd60e51b815260040161068190613370565b5f83815260126020908152604080832033845290915290205460ff161561106d5760405162461bcd60e51b81526020600482015260056024820152641d9bdd195960da1b6044820152606401610681565b5f8381526012602090815260408083203384529091528120805460ff1916600117905560038201805463ffffffff16916110a683613397565b91906101000a81548163ffffffff021916908363ffffffff16021790555050336001600160a01b0316837f049c28adfe50bcf1b76fd95273b6a24566b9f377e52fddc653c3355248dad07a60405160405180910390a3611104611cdd565b600382015463ffffffff161061113a5761111d83611d32565b91508161113a5760038101805460ff60401b1916600160401b1790555b506001601655919050565b6016546001146111675760405162461bcd60e51b81526004016106819061316a565b60026016555f81815260146020526040812090600782015460ff16600381111561119357611193612e50565b14806111b757506001600782015460ff1660038111156111b5576111b5612e50565b145b6111f35760405162461bcd60e51b815260206004820152600d60248201526c6e6f7420726570617961626c6560981b6044820152606401610681565b60018101546001600160a01b0316331461123e5760405162461bcd60e51b815260206004820152600c60248201526b3737ba103137b93937bbb2b960a11b6044820152606401610681565b5f8160050154826004015461125391906133bb565b6040516323b872dd60e01b8152336004820152306024820152604481018290529091507f00000000000000000000000000000000000000000000000000000000000000006001600160a01b0316906323b872dd906064016020604051808303815f875af11580156112c6573d5f5f3e3d5ffd5b505050506040513d601f19601f820116820180604052508101906112ea9190613255565b6113255760405162461bcd60e51b815260206004820152600c60248201526b1c995c185e4819985a5b195960a21b6044820152606401610681565b6004820154600583015560078201805460ff19166002179055604051818152339084907f512d3e65b3e58c2187bb1872aa435dba5bd09c1c03823ba56ab70aac411e4a219060200160405180910390a35050600160165550565b5f81815260116020526040812081600382810154600160401b900460ff16908111156113ad576113ad612e50565b146113e55760405162461bcd60e51b81526020600482015260086024820152673737ba1037b832b760c11b6044820152606401610681565b6113ee33612a6c565b61140a5760405162461bcd60e51b815260040161068190613370565b5f83815260126020908152604080832033845290915290205460ff161561145b5760405162461bcd60e51b81526020600482015260056024820152641d9bdd195960da1b6044820152606401610681565b5f8381526012602090815260408083203384529091529020805460ff1916600217905560038101805463ffffffff6401000000009091041690600461149f83613397565b91906101000a81548163ffffffff021916908363ffffffff16021790555050336001600160a01b0316837fff556cafc8033c441c6fea0e40d12f0ec0c8c9168f6bac576e84800331b1a52f60405160405180910390a36114fd611cdd565b6003820154640100000000900463ffffffff16611518612acb565b61152291906133bb565b101561157f576003810180546802000000000000000060ff60401b199091161790556040516002815283907f72b5ce25e9823e74d98ed37f5ce167c0ed7e8728dd1d45326ee475b9ac9ba4279060200160405180910390a2600191505b50919050565b60408051610100810182525f808252602082018190529181018290526060808201526080810182905260a0810182905260c0810182905260e08101919091525f8281526011602090815260409182902082516101008101909352805483526001810154909183019060ff16600481111561160157611601612e50565b600481111561161257611612612e50565b8152600182015461010090046001600160a01b03166020820152600282018054604090920191611641906133ce565b80601f016020809104026020016040519081016040528092919081815260200182805461166d906133ce565b80156116b85780601f1061168f576101008083540402835291602001916116b8565b820191905f5260205f20905b81548152906001019060200180831161169b57829003601f168201915b505050918352505060038281015463ffffffff80821660208501526401000000008204166040840152606090920191600160401b900460ff169081111561170157611701612e50565b600381111561171257611712612e50565b815260039190910154600160481b900467ffffffffffffffff1660209091015292915050565b6040516370a0823160e01b81523060048201525f907f00000000000000000000000000000000000000000000000000000000000000006001600160a01b0316906370a0823190602401602060405180830381865afa15801561179c573d5f5f3e3d5ffd5b505050506040513d601f19601f820116820180604052508101906106379190613221565b5f610637612acb565b6003545f90600160301b900460ff166118185760405162461bcd60e51b81526020600482015260116024820152703234b9b1b932ba34b7b730b93c9037b33360791b6044820152606401610681565b604080516001600160a01b0385166020820152908101839052610df690600190606001610716565b6016546001146118625760405162461bcd60e51b81526004016106819061316a565b6002601655600e5460ff161561188a5760405162461bcd60e51b81526004016106819061318d565b335f9081526007602052604090205460ff166118d55760405162461bcd60e51b815260206004820152600a6024820152696e6f742061637469766560b01b6044820152606401610681565b600b545f908152600f6020908152604080832033845290915290205460ff161561192a5760405162461bcd60e51b8152600401610681906020808252600490820152631c185a5960e21b604082015260600190565b5f546040516323b872dd60e01b815233600482015230602482015260448101919091527f00000000000000000000000000000000000000000000000000000000000000006001600160a01b0316906323b872dd906064016020604051808303815f875af115801561199d573d5f5f3e3d5ffd5b505050506040513d601f19601f820116820180604052508101906119c19190613255565b611a175760405162461bcd60e51b815260206004820152602160248201527f7472616e73666572206661696c6564202d20636865636b20616c6c6f77616e636044820152606560f81b6064820152608401610681565b600b80545f908152600f6020908152604080832033808552908352818420805460ff19166001179055935492548151938452918301919091527f5dc1fe5ab986a852c4eda8e8bb94247d13307065c593fb83f1a09be273679382910160405180910390a26001601655565b60606005805480602002602001604051908101604052809291908181526020018280548015611ad857602002820191905f5260205f20905b81546001600160a01b03168152600190910190602001808311611aba575b5050505050905090565b600e545f9060ff1615611b075760405162461bcd60e51b81526004016106819061318d565b335f9081526007602052604090205460ff16611b525760405162461bcd60e51b815260206004820152600a6024820152696e6f742061637469766560b01b6044820152606401610681565b5f60135f8154611b6190613270565b91829055505f81815260116020526040902081815560018082018054939450919287929160ff1990911690836004811115611b9e57611b9e612e50565b0217905550600181018054610100600160a81b031916336101000217905560028101611bca8582613460565b5060038101805470ffffffffffffffffff00000000000000001916600160481b4267ffffffffffffffff160217905533827f3263432a41f78a4701cc9465f62411ed717ade32290c084135a3dd6b29f4bf28876004811115611c2e57611c2e612e50565b60405160ff909116815260200160405180910390a3509392505050565b5f805b82811015611cd55782600d5410611c64575f600d555b5f6005600d5481548110611c7a57611c7a61320d565b5f918252602082200154600d80546001600160a01b0390921693509091611ca083613270565b90915550506001600160a01b0381165f9081526007602052604090205460ff1615611ccc579392505050565b50600101611c4e565b505f92915050565b6003545f908190612710906301000000900461ffff16611cfb612acb565b611d0591906131d7565b611d119061270f6131c4565b611d1b91906131ee565b90508015611d295780611d2c565b60015b91505090565b5f81815260116020526040812081600182015460ff166004811115611d5957611d59612e50565b0361212c575f5f5f5f846002018054611d71906133ce565b80601f0160208091040260200160405190810160405280929190818152602001828054611d9d906133ce565b8015611de85780601f10611dbf57610100808354040283529160200191611de8565b820191905f5260205f20905b815481529060010190602001808311611dcb57829003601f168201915b5050505050806020019051810190611e00919061351b565b6040516370a0823160e01b81523060048201529397509195509350915083906001600160a01b037f000000000000000000000000000000000000000000000000000000000000000016906370a0823190602401602060405180830381865afa158015611e6e573d5f5f3e3d5ffd5b505050506040513d601f19601f82011682018060405250810190611e929190613221565b1015611ea457505f9695505050505050565b6003858101805460ff60401b1916600160401b8302179055505f60155f8154611ecc90613270565b918290555090505f612710611ee185876131d7565b611eeb91906131ee565b611ef590866131c4565b9050604051806101000160405280838152602001876001600160a01b031681526020018681526020018581526020018281526020015f81526020018481526020015f6003811115611f4857611f48612e50565b81525060145f8481526020019081526020015f205f820151815f01556020820151816001015f6101000a8154816001600160a01b0302191690836001600160a01b0316021790555060408201518160020155606082015181600301556080820151816004015560a0820151816005015560c0820151816006015560e0820151816007015f6101000a81548160ff02191690836003811115611feb57611feb612e50565b02179055505060405163a9059cbb60e01b81526001600160a01b038881166004830152602482018890527f000000000000000000000000000000000000000000000000000000000000000016915063a9059cbb906044016020604051808303815f875af115801561205e573d5f5f3e3d5ffd5b505050506040513d601f19601f820116820180604052508101906120829190613255565b6120c05760405162461bcd60e51b815260206004820152600f60248201526e191a5cd89d5c9cd94819985a5b1959608a1b6044820152606401610681565b60408051868152602081018b90526001600160a01b0388169184917fa17f99bd4547aa4c1ccc3829b6f6b53285043ac310a536743995ea2ae594520f910160405180910390a360405189905f51602061367b5f395f51905f52905f90a250600198975050505050505050565b60018082015460ff16600481111561214657612146612e50565b036123d0575f5f82600201805461215c906133ce565b80601f0160208091040260200160405190810160405280929190818152602001828054612188906133ce565b80156121d35780601f106121aa576101008083540402835291602001916121d3565b820191905f5260205f20905b8154815290600101906020018083116121b657829003601f168201915b50505050508060200190518101906121eb9190613557565b6040516370a0823160e01b8152306004820152919350915081906001600160a01b037f000000000000000000000000000000000000000000000000000000000000000016906370a0823190602401602060405180830381865afa158015612254573d5f5f3e3d5ffd5b505050506040513d601f19601f820116820180604052508101906122789190613221565b101561228857505f949350505050565b600383018054600360401b60ff60401b1990911617905560405163a9059cbb60e01b81526001600160a01b038381166004830152602482018390527f0000000000000000000000000000000000000000000000000000000000000000169063a9059cbb906044016020604051808303815f875af115801561230b573d5f5f3e3d5ffd5b505050506040513d601f19601f8201168201806040525081019061232f9190613255565b6123695760405162461bcd60e51b815260206004820152600b60248201526a191a5cd8c819985a5b195960aa1b6044820152606401610681565b60408051828152602081018790526001600160a01b038416917f71b05fca8ccc060c83aa87255824633c9d0e551d40a3747a12fa0c06010ee5de91015b60405180910390a260405185905f51602061367b5f395f51905f52905f90a2506001949350505050565b6002600182015460ff1660048111156123eb576123eb612e50565b036125af575f816002018054612400906133ce565b80601f016020809104026020016040519081016040528092919081815260200182805461242c906133ce565b80156124775780601f1061244e57610100808354040283529160200191612477565b820191905f5260205f20905b81548152906001019060200180831161245a57829003601f168201915b505050505080602001905181019061248f91906135c3565b6003838101805460ff60401b1916600360401b17905581515f908155602083015160019081556040840151600290815560608501518454959650869593949093909260ff199091169184908111156124e9576124e9612e50565b02179055506080820151600391909101805460a084015160c085015160e08601516101009687015164ffffffff001990941661ffff96871690970264ffff000000191696909617630100000095909216949094021766ffff00000000001916650100000000009315159390930266ff000000000000191692909217600160301b931515939093029290921767ff000000000000001916600160381b9115159190910217905560405184905f51602061367b5f395f51905f52905f90a25060019392505050565b6003600182015460ff1660048111156125ca576125ca612e50565b036128b7575f5f8260020180546125e0906133ce565b80601f016020809104026020016040519081016040528092919081815260200182805461260c906133ce565b80156126575780601f1061262e57610100808354040283529160200191612657565b820191905f5260205f20905b81548152906001019060200180831161263a57829003601f168201915b505050505080602001905181019061266f9190613557565b6040516370a0823160e01b8152306004820152919350915081906001600160a01b037f000000000000000000000000000000000000000000000000000000000000000016906370a0823190602401602060405180830381865afa1580156126d8573d5f5f3e3d5ffd5b505050506040513d601f19601f820116820180604052508101906126fc9190613221565b101561270c57505f949350505050565b60038301805460ff60401b1916600360401b1790556001600160a01b0382165f9081526007602052604090205460ff16156127a6576001600160a01b0382165f908152600760209081526040808320805460ff19169055600890915290205460ff16156127a6576001600160a01b0382165f908152600860205260408120805460ff19169055600a8054916127a083613665565b91905055505b80156128765760405163a9059cbb60e01b81526001600160a01b038381166004830152602482018390527f0000000000000000000000000000000000000000000000000000000000000000169063a9059cbb906044016020604051808303815f875af1158015612818573d5f5f3e3d5ffd5b505050506040513d601f19601f8201168201806040525081019061283c9190613255565b6128765760405162461bcd60e51b815260206004820152600b60248201526a195e1a5d0819985a5b195960aa1b6044820152606401610681565b60408051828152602081018790526001600160a01b038416917f9438a0b69bb12473ccdf554a70e33245d6b70ce49fa5351bcbfbd0ea07832d8091016123a6565b60038101805460ff60401b1916600360401b1790556128d4612aed565b60405183905f51602061367b5f395f51905f52905f90a250600192915050565b6005545f90815b8181101561295b5760075f600583815481106129195761291961320d565b5f9182526020808320909101546001600160a01b0316835282019290925260400190205460ff1615612953578261294f81613270565b9350505b6001016128fb565b505090565b6001600160a01b0382165f8181526006602090815260408083208054600160ff19918216811790925560078452828520805490911682179055600b546009909352908320919091556005805491820181559091527f036b6384b5eca791c62761152d0c79bb0604c104a5fb6f4eb0703f3154bb3db00180546001600160a01b03191690911790558015612a23576001600160a01b0382165f908152600860205260408120805460ff19166001179055600a805491612a1d83613270565b91905055505b816001600160a01b03167f7f3b9effe05cfb4f31f854004de03199fd03fe56bf38a48b2aa9a9f4402d6e23600b54604051612a6091815260200190565b60405180910390a25050565b6001600160a01b0381165f9081526007602052604081205460ff16612a9257505f919050565b600354600160381b900460ff16612ac3576001600160a01b0382165f9081526008602052604090205460ff16610df9565b600192915050565b6003545f90600160381b900460ff16612ae55750600a5490565b6106376128f4565b5f612af66128f4565b6040516370a0823160e01b81523060048201529091505f906001600160a01b037f000000000000000000000000000000000000000000000000000000000000000016906370a0823190602401602060405180830381865afa158015612b5d573d5f5f3e3d5ffd5b505050506040513d601f19601f82011682018060405250810190612b819190613221565b90505f8215612b9957612b9483836131ee565b612b9b565b5f5b6005549091505f5b81811015612d5e575f60058281548110612bbf57612bbf61320d565b5f9182526020808320909101546001600160a01b0316808352600790915260409091205490915060ff16612bf35750612d56565b6001600160a01b0381165f908152601060205260408120548511612c17575f612c39565b6001600160a01b0382165f90815260106020526040902054612c3990866133bb565b90508015612d535760405163a9059cbb60e01b81526001600160a01b038381166004830152602482018390527f0000000000000000000000000000000000000000000000000000000000000000169063a9059cbb906044016020604051808303815f875af1158015612cad573d5f5f3e3d5ffd5b505050506040513d601f19601f82011682018060405250810190612cd19190613255565b612d0f5760405162461bcd60e51b815260206004820152600f60248201526e1cda185c995bdd5d0819985a5b1959608a1b6044820152606401610681565b816001600160a01b03167fe448e5e32943ca0df7f1b50b33a231d92199286a8149839011519765cd1772c982604051612d4a91815260200190565b60405180910390a25b50505b600101612ba3565b5050600e805460ff19166001179055505050565b6040518061010001604052805f81526020015f6001600160a01b031681526020015f81526020015f81526020015f81526020015f81526020015f81526020015f6003811115612dc357612dc3612e50565b905290565b6001600160a01b0381168114612ddc575f5ffd5b50565b5f5f5f5f60808587031215612df2575f5ffd5b8435612dfd81612dc8565b966020860135965060408601359560600135945092505050565b5f60208284031215612e27575f5ffd5b5035919050565b5f60208284031215612e3e575f5ffd5b8135612e4981612dc8565b9392505050565b634e487b7160e01b5f52602160045260245ffd5b60048110612ddc57612ddc612e50565b5f610100820190508251825260018060a01b03602084015116602083015260408301516040830152606083015160608301526080830151608083015260a083015160a083015260c083015160c083015260e0830151612ed281612e64565b8060e08401525092915050565b5f5f60408385031215612ef0575f5ffd5b8235612efb81612dc8565b946020939093013593505050565b5f5f60408385031215612f1a575f5ffd5b823591506020830135612f2c81612dc8565b809150509250929050565b5f5f60208385031215612f48575f5ffd5b823567ffffffffffffffff811115612f5e575f5ffd5b8301601f81018513612f6e575f5ffd5b803567ffffffffffffffff811115612f84575f5ffd5b856020828401011115612f95575f5ffd5b6020919091019590945092505050565b5f610120828403128015612fb7575f5ffd5b509092915050565b60038110612fcf57612fcf612e50565b9052565b89815260208101899052604081018890526101208101612ff66060830189612fbf565b61ffff96871660808301529490951660a086015291151560c0850152151560e0840152151561010090920191909152949350505050565b5f81518084528060208401602086015e5f602082860101526020601f19601f83011685010191505092915050565b612fcf81612e64565b60208152815160208201525f60208301516005811061308557613085612e50565b8060408401525060408301516130a660608401826001600160a01b03169052565b50606083015161010060808401526130c261012084018261302d565b905060808401516130db60a085018263ffffffff169052565b5060a084015163ffffffff811660c08501525060c084015161310060e085018261305b565b5060e084015167ffffffffffffffff8116610100850152509392505050565b602080825282518282018190525f918401906040840190835b8181101561315f5783516001600160a01b0316835260209384019390920191600101613138565b509095945050505050565b6020808252600990820152681c99595b9d1c985b9d60ba1b604082015260600190565b602080825260099082015268191a5cdcdbdb1d995960ba1b604082015260600190565b634e487b7160e01b5f52601160045260245ffd5b80820180821115610df957610df96131b0565b8082028115828204841417610df957610df96131b0565b5f8261320857634e487b7160e01b5f52601260045260245ffd5b500490565b634e487b7160e01b5f52603260045260245ffd5b5f60208284031215613231575f5ffd5b5051919050565b8015158114612ddc575f5ffd5b805161325081613238565b919050565b5f60208284031215613265575f5ffd5b8151612e4981613238565b5f60018201613281576132816131b0565b5060010190565b818382375f9101908152919050565b60038110612ddc575f5ffd5b61ffff81168114612ddc575f5ffd5b8035613250816132a3565b803561325081613238565b813581526020808301359082015260408083013590820152610120810160608301356132f381613297565b6133006060840182612fbf565b50608083013561330f816132a3565b61ffff16608083015261332460a084016132b2565b61ffff1660a083015261333960c084016132bd565b151560c083015261334c60e084016132bd565b151560e083015261336061010084016132bd565b8015156101008401525092915050565b6020808252600d908201526c6e6f7420636f6d6d697474656560981b604082015260600190565b5f63ffffffff821663ffffffff81036133b2576133b26131b0565b60010192915050565b81810381811115610df957610df96131b0565b600181811c908216806133e257607f821691505b60208210810361157f57634e487b7160e01b5f52602260045260245ffd5b634e487b7160e01b5f52604160045260245ffd5b601f82111561345b57805f5260205f20601f840160051c810160208510156134395750805b601f840160051c820191505b81811015613458575f8155600101613445565b50505b505050565b815167ffffffffffffffff81111561347a5761347a613400565b61348e8161348884546133ce565b84613414565b6020601f8211600181146134c0575f83156134a95750848201515b5f19600385901b1c1916600184901b178455613458565b5f84815260208120601f198516915b828110156134ef57878501518255602094850194600190920191016134cf565b508482101561350c57868401515f19600387901b60f8161c191681555b50505050600190811b01905550565b5f5f5f5f6080858703121561352e575f5ffd5b845161353981612dc8565b60208601516040870151606090970151919890975090945092505050565b5f5f60408385031215613568575f5ffd5b825161357381612dc8565b6020939093015192949293505050565b604051610120810167ffffffffffffffff811182821017156135a7576135a7613400565b60405290565b805161325081613297565b8051613250816132a3565b5f6101208284031280156135d5575f5ffd5b506135de613583565b825181526020808401519082015260408084015190820152613602606084016135ad565b6060820152613613608084016135b8565b608082015261362460a084016135b8565b60a082015261363560c08401613245565b60c082015261364660e08401613245565b60e08201526136586101008401613245565b6101008201529392505050565b5f81613673576136736131b0565b505f19019056fe712ae1383f79ac853f8d882153778e0260ef8f03b504e2866e0593e04d2b291fa26469706673582212205c48cdeb62d792a474357b45200d41d8f1e83dbb23ff002cd4d70c1129520da064736f6c634300081c0033a26469706673582212205773aa6b60009371ac6f6aacbe426f39ddb368b3c8e545f32e38e32e79d78c1b64736f6c634300081c0033",
  "linkReferences": {},
  "deployedLinkReferences": {},
  "immutableReferences": {
    "1881": [
      {
        "length": 32,
        "start": 147
      },
      {
        "length": 32,
        "start": 205
      }
    ]
  },
  "inputSourceName": "project/contracts/Ikimina.sol",
  "buildInfoId": "solc-0_8_28-fbe957156b826068150729d92385ad01b9af0fb5"
}