{
  "_format": "hh3-artifact-1",
  "contractName": "MockUSDm",
  "sourceName": "contracts/MockUSDm.sol",
  "abi": [
    {
      "anonymous": false,
      "inputs": [
        {
          "indexed": true,
          "internalType": "address",
          "name": "owner",
          "type": "address"
        },
        {
          "indexed": true,
          "internalType": "address",
          "name": "spender",
          "type": "address"
        },
        {
          "indexed": false,
          "internalType": "uint256",
          "name": "value",
          "type": "uint256"
        }
      ],
      "name": "Approval",
      "type": "event"
    },
    {
      "anonymous": false,
      "inputs": [
        {
          "indexed": true,
          "internalType": "address",
          "name": "from",
          "type": "address"
        },
        {
          "indexed": true,
          "internalType": "address",
          "name": "to",
          "type": "address"
        },
        {
          "indexed": false,
          "internalType": "uint256",
          "name": "value",
          "type": "uint256"
        }
      ],
      "name": "Transfer",
      "type": "event"
    },
    {
      "inputs": [
        {
          "internalType": "address",
          "name": "",
          "type": "address"
        },
        {
          "internalType": "address",
          "name": "",
          "type": "address"
        }
      ],
      "name": "allowance",
      "outputs": [
        {
          "internalType": "uint256",
          "name": "",
          "type": "uint256"
        }
      ],
      "stateMutability": "view",
      "type": "function"
    },
    {
      "inputs": [
        {
          "internalType": "address",
          "name": "spender",
          "type": "address"
        },
        {
          "internalType": "uint256",
          "name": "amount",
          "type": "uint256"
        }
      ],
      "name": "approve",
      "outputs": [
        {
          "internalType": "bool",
          "name": "",
          "type": "bool"
        }
      ],
      "stateMutability": "nonpayable",
      "type": "function"
    },
    {
      "inputs": [
        {
          "internalType": "address",
          "name": "",
          "type": "address"
        }
      ],
      "name": "balanceOf",
      "outputs": [
        {
          "internalType": "uint256",
          "name": "",
          "type": "uint256"
        }
      ],
      "stateMutability": "view",
      "type": "function"
    },
    {
      "inputs": [],
      "name": "decimals",
      "outputs": [
        {
          "internalType": "uint8",
          "name": "",
          "type": "uint8"
        }
      ],
      "stateMutability": "view",
      "type": "function"
    },
    {
      "inputs": [
        {
          "internalType": "address",
          "name": "to",
          "type": "address"
        },
        {
          "internalType": "uint256",
          "name": "amount",
          "type": "uint256"
        }
      ],
      "name": "mint",
      "outputs": [],
      "stateMutability": "nonpayable",
      "type": "function"
    },
    {
      "inputs": [],
      "name": "name",
      "outputs": [
        {
          "internalType": "string",
          "name": "",
          "type": "string"
        }
      ],
      "stateMutability": "view",
      "type": "function"
    },
    {
      "inputs": [],
      "name": "symbol",
      "outputs": [
        {
          "internalType": "string",
          "name": "",
          "type": "string"
        }
      ],
      "stateMutability": "view",
      "type": "function"
    },
    {
      "inputs": [
        {
          "internalType": "address",
          "name": "to",
          "type": "address"
        },
        {
          "internalType": "uint256",
          "name": "amount",
          "type": "uint256"
        }
      ],
      "name": "transfer",
      "outputs": [
        {
          "internalType": "bool",
          "name": "",
          "type": "bool"
        }
      ],
      "stateMutability": "nonpayable",
      "type": "function"
    },
    {
      "inputs": [
        {
          "internalType": "address",
          "name": "from",
          "type": "address"
        },
        {
          "internalType": "address",
          "name": "to",
          "type": "address"
        },
        {
          "internalType": "uint256",
          "name": "amount",
          "type": "uint256"
        }
      ],
      "name": "transferFrom",
      "outputs": [
        {
          "internalType": "bool",
          "name": "",
          "type": "bool"
        }
      ],
      "stateMutability": "nonpayable",
      "type": "function"
    }
  ],
  "bytecode": "0x60c060405260096080908152684d6f636b205553446d60b81b60a0525f906100279082610107565b506040805180820190915260048152635553444d60e01b60208201526001906100509082610107565b506002805460ff19166012179055348015610069575f5ffd5b506101c1565b634e487b7160e01b5f52604160045260245ffd5b600181811c9082168061009757607f821691505b6020821081036100b557634e487b7160e01b5f52602260045260245ffd5b50919050565b601f82111561010257805f5260205f20601f840160051c810160208510156100e05750805b601f840160051c820191505b818110156100ff575f81556001016100ec565b50505b505050565b81516001600160401b038111156101205761012061006f565b6101348161012e8454610083565b846100bb565b6020601f821160018114610166575f831561014f5750848201515b5f19600385901b1c1916600184901b1784556100ff565b5f84815260208120601f198516915b828110156101955787850151825560209485019460019092019101610175565b50848210156101b257868401515f19600387901b60f8161c191681555b50505050600190811b01905550565b610744806101ce5f395ff3fe608060405234801561000f575f5ffd5b5060043610610090575f3560e01c806340c10f191161006357806340c10f191461010757806370a082311461011c57806395d89b4114610149578063a9059cbb14610151578063dd62ed3e14610164575f5ffd5b806306fdde0314610094578063095ea7b3146100b257806323b872dd146100d5578063313ce567146100e8575b5f5ffd5b61009c61018e565b6040516100a99190610599565b60405180910390f35b6100c56100c03660046105e9565b610219565b60405190151581526020016100a9565b6100c56100e3366004610611565b610285565b6002546100f59060ff1681565b60405160ff90911681526020016100a9565b61011a6101153660046105e9565b61043b565b005b61013b61012a36600461064b565b60036020525f908152604090205481565b6040519081526020016100a9565b61009c6104ab565b6100c561015f3660046105e9565b6104b8565b61013b61017236600461066b565b600460209081525f928352604080842090915290825290205481565b5f805461019a9061069c565b80601f01602080910402602001604051908101604052809291908181526020018280546101c69061069c565b80156102115780601f106101e857610100808354040283529160200191610211565b820191905f5260205f20905b8154815290600101906020018083116101f457829003601f168201915b505050505081565b335f8181526004602090815260408083206001600160a01b038716808552925280832085905551919290917f8c5be1e5ebec7d5bd14f71427d1e84f3dd0314c0f7b2291e5b200ac8c7c3b925906102739086815260200190565b60405180910390a35060015b92915050565b6001600160a01b0383165f908152600360205260408120548211156102e85760405162461bcd60e51b8152602060048201526014602482015273696e73756666696369656e742062616c616e636560601b60448201526064015b60405180910390fd5b6001600160a01b0384165f9081526004602090815260408083203384529091529020548211156103535760405162461bcd60e51b8152602060048201526016602482015275696e73756666696369656e7420616c6c6f77616e636560501b60448201526064016102df565b6001600160a01b0384165f908152600360205260408120805484929061037a9084906106e8565b90915550506001600160a01b0383165f90815260036020526040812080548492906103a69084906106fb565b90915550506001600160a01b0384165f908152600460209081526040808320338452909152812080548492906103dd9084906106e8565b92505081905550826001600160a01b0316846001600160a01b03167fddf252ad1be2c89b69c2b068fc378daa952ba7f163c4a11628f55a4df523b3ef8460405161042991815260200190565b60405180910390a35060019392505050565b6001600160a01b0382165f90815260036020526040812080548392906104629084906106fb565b90915550506040518181526001600160a01b038316905f907fddf252ad1be2c89b69c2b068fc378daa952ba7f163c4a11628f55a4df523b3ef9060200160405180910390a35050565b6001805461019a9061069c565b335f9081526003602052604081205482111561050d5760405162461bcd60e51b8152602060048201526014602482015273696e73756666696369656e742062616c616e636560601b60448201526064016102df565b335f908152600360205260408120805484929061052b9084906106e8565b90915550506001600160a01b0383165f90815260036020526040812080548492906105579084906106fb565b90915550506040518281526001600160a01b0384169033907fddf252ad1be2c89b69c2b068fc378daa952ba7f163c4a11628f55a4df523b3ef90602001610273565b602081525f82518060208401528060208501604085015e5f604082850101526040601f19601f83011684010191505092915050565b80356001600160a01b03811681146105e4575f5ffd5b919050565b5f5f604083850312156105fa575f5ffd5b610603836105ce565b946020939093013593505050565b5f5f5f60608486031215610623575f5ffd5b61062c846105ce565b925061063a602085016105ce565b929592945050506040919091013590565b5f6020828403121561065b575f5ffd5b610664826105ce565b9392505050565b5f5f6040838503121561067c575f5ffd5b610685836105ce565b9150610693602084016105ce565b90509250929050565b600181811c908216806106b057607f821691505b6020821081036106ce57634e487b7160e01b5f52602260045260245ffd5b50919050565b634e487b7160e01b5f52601160045260245ffd5b8181038181111561027f5761027f6106d4565b8082018082111561027f5761027f6106d456fea26469706673582212203d49d11691ab4100717dde8cc6429b6952571fba3707a8a7e648ebee8a48876264736f6c634300081c0033",
  "linkReferences": {},
  "deployedLinkReferences": {},
  "immutableReferences": {},
  "inputSourceName": "project/contracts/MockUSDm.sol",
  "buildInfoId": "solc-0_8_28-79c0901fc80e2c82449603967df0856be5bdbc3a"
}